:040000006F00901AE3
:100004000000000000000000900000208A0400208E
:10001400A9BDF9F3900000200000000000000000DA
:10002400900000209000002000000000000000006C
:10003400900000200000000090000020000000005C
:1000440090000020900000209000002090000020EC
:100054009000002090000020220F0000900000205B
:1000640090000020900000209000002090000020CC
:1000740090000020900000209000002090000020BC
:1000840090000020900000209000002090000020AC
:1000940001A073270080218B9387C18009CB73272C
:1000A400008023A6E18098435D9B731007800F10A6
:1000B400000037170040930670052300D704930609
:1000C40080FA2300D7040F1000008346B70493F688
:1000D400F60DA305D7042300070473260080944378
:1000E400A18AD18E7390068023A601800F10000090
:1000F40093760502638406180347A700118B25E74E
:1001040073270080218B09CB7327008023A6E1800D
:1001140098435D9B731007800F1000003717004051
:10012400930670052300D704930680FA2300D704AE
:100134000F1000008346A70093E646002305D7006E
:1001440023000704F32600809843218B558F7310F6
:10015400078023A601800F1000001307004B010045
:1001640001007D176DFF73270080218B09CB732756
:10017400008023A6E18098435D9B731007800F10D5
:10018400000037170040930670052300D704930638
:1001940080FA2300D7040F1000007D892314A700E0
:1001A400010001000100010023000704F326008080
:1001B4009843218B558F7310078023A601800F105D
:1001C400000073270080218B09CB7327008023A6AE
:1001D400E18098435D9B731007800F100000371770
:1001E4000040930670052300D704930680FA230089
:1001F400D7040F1000000F100000B72600401306AC
:100204001005A383C68023000704F32600809843C7
:10021400218B558F7310078023A601800F100000D7
:1002240073270080218B09CB7327008023A6E180EC
:1002340098435D9B731007800F1000003717004030
:10024400930670052300D704930680FA2300D7048D
:100254000F1000008346B70493E60608A305D704ED
:1002640023000704732700809C43A18BD98F7390CC
:10027400078023A601800F10000082809376050476
:10028400638B06140347A700418B25E7732700807F
:10029400218B09CB7327008023A6E18098435D9BC3
:1002A400731007800F100000371700409306700585
:1002B4002300D704930680FA2300D7040F1000000C
:1002C4008346A70093E606012305D700230007040D
:1002D400F32600809843218B558F7310078023A643
:1002E40001800F1000001307007D010001007D173D
:1002F4006DFF73270080218B09CB7327008023A611
:10030400E18098435D9B731007800F10000037173E
:100314000040930670052300D704930680FA230057
:10032400D7040F1000009376F50193E60604231416
:10033400D700010001000100010023000704F32697
:1003440000809843218B558F7310078023A601806A
:100354000F100000130760046310E5047327008086
:10036400218B09CB7327008023A6E18098435D9BF2
:10037400731007800F1000003717004093067005B4
:100384002300D704930680FA2300D7040F1000003B
:10039400B72600400946B5B573270080218B09CBE9
:1003A4007327008023A6E18098435D9B7310078028
:1003B4000F10000037170040930670052300D70480
:1003C400930680FA2300D7040F100000B7260040DC
:1003D400130620053DB573270080218B09CB7327B5
:1003E400008023A6E18098435D9B731007800F1063
:1003F400000037170040930670052300D7049306C6
:1004040080FA2300D7040F1000008356870093E678
:10041400060C2314D700C5BB411181460146814512
:10042400114506C6192CF3270080A18B9386C18041
:1004340089CBF327008023A6F1809C42DD9B739037
:1004440007800F100000B7170040130770052380C2
:10045400E704130780FA2380E7040F10000003C7A2
:100464006704136717002383E704238007047327B3
:1004740000809C42A18BD98F7390078023A60180B2
:100484000F100000B240410182808146014681453F
:1004940011456522F3270080A18B1387C18089CB86
:1004A400F327008023A6F1801C43DD9B7390078013
:1004B4000F100000B7170040930670052380D7047F
:1004C400930680FA2380D7040F100000FD5623966C
:1004D400D70223800704F32600801C43A18BD58F09
:1004E4007390078023A601800F100000F32700807B
:1004F400A18B89CBF327008023A6F1801C43DD9BCD
:10050400739007800F100000B71700409306700522
:100514002380D704930680FA2380D7040F100000A9
:1005240083C6670493E616002383D7042380070455
:10053400F32600801C43A18BD58F7390078023A6DC
:1005440001800F10000001A0BD473305F502010032
:100554007D1575FD8280411122C426C206C6AA8477
:10056400014463179400B2402244924441018280C2
:1005740005041305803E4204C13F4180DDB72303D7
:10058400048015472303E48001002302A4808280B1
:1005940083076480E3CE07FE2303048082808307FD
:1005A4006480E3CE07FE0345448082808307648031
:1005B400E3CE07FE2302A4808280411126C44AC2EE
:1005C4004EC006C61377F50BAD47AA892E8995440C
:1005D4006306F70019456537653F8D444E854537F9
:1005E400FD59FD1463983401B240A2441249824972
:1005F40041018280135509011375F50F453F220906
:10060400CDB7011126CC06CEB704080051371545E5
:10061400BD37713769372AC6A53F32459377150030
:1006240089EB136515001375F50FF240E24405617B
:100634008280FD14E9FC0145CDBF397126DC4ADA1C
:100644004ED852D656D45AD25ED006DE62CE66CC8E
:10065400B7E700E07D5783AA070022C603AA470034
:1006640023A0E71823A2E718B71700401307700563
:100674002380E704130780FA2380E70483C7470431
:10068400930B75FFB684E20793FBFB0F8546AA899B
:100694002E8B328937240040E187015763FA7601B3
:1006A4006308D5008946130700026313D500015778
:1006B400D98F93F7F70FB71C00402382FC0411472E
:1006C4002303E4801305F00F5D3D094CD135636DC0
:1006D4007C11B7050700DA9537870700795563F26F
:1006E400E504B3879500636EF702370B0800A9474A
:1006F40033EB65016399F90689E48144513D26850C
:100704000DA0DA850945553D05090345F9FFFD149A
:10071400050B693D81C49377FB0FFDF7DD3569FD5A
:100724007D55B7170040130770052380E7041307AE
:1007340080FA2380E70403C74704418B2382E7043C
:10074400F250B7E700E023A0571123A24711E25467
:1007540032445259C259325AA25A125B825B724CC9
:10076400E24C21618280A5476395F90685691309E6
:10077400F00FB3069900B3742B01B6941349F9FF33
:10078400B3749900856B33796901416B9387F9FFE1
:10079400B3F7270199E363FC340193D94900C147B6
:1007A400E3E637FF99BF0569C1697D19D9B7130518
:1007B400800D6388690113050002638479011305C0
:1007C4001008CA85DD3B353D21DD4E99B3843441A3
:1007D400D9B7DA852D45D533CA94E30099F20509D2
:1007E4007D3BA30FA9FED5BF9387F9FF93F7F70FBE
:1007F4006361FC0C83C71C0413073008631FF704F0
:1008040037070800636BEB04B3079B00B7061000BF
:1008140063F5D704334BEB0089476393F90689806A
:10082400D549E38C04ECDA850945413B11090327DA
:10083400C9FF91472320E48003076480E34E07FE49
:1008440023033481FD17EDFBFD14110B81C4937751
:10085400FB0FE9FF7D3371F5E1B5B717004003C71E
:100864005704B70708001377070219E3B78707008F
:100874007955E378FBEA33079B00E3FFE7F855B5C6
:100884008547E382F9F2DA852D45053B9389F4FF28
:10089400E38504E6293393F7390091EB832604803A
:1008A4000327090093074900E39AE6E43E89CE84CE
:1008B400F1BFB5476396F9001305900BC93135BDF7
:1008C400B1471305B00AE38BF9FE99476391F90424
:1008D400B7050800B365BB002D45C53181448D4B78
:1008E400A149753963967401832704802320F90094
:1008F4008504E39834FF8327048013172B01635581
:1009040007002312F900D5BB2322F900FDB39D474C
:100914006399F90281451305B0044531BD44232090
:10092400090023220900FD599D3993F77400CA97E1
:1009340003C70700FD14398D2380A700E39634FF15
:100944006DBBA1476392F9046D398144630D0B00BB
:100954008D479304C0036308FB00930400056304FC
:100964008B01930440041375C507E30895D8194512
:10097400393139390545213126850D3909453D314E
:100984004931E31C05D669BB91476399F900130506
:100994006006F536F53E130590090DB7E38F09D4CB
:0409A400F154A9BBA6
:1009A80097110020938101801771002013010165C0
:1009B8001305400097F5FF1F93854564170600202F
:1009C800130606FE63FAC5008322050023A055001E
:1009D80011059105E3EAC5FE1705000013054573E7
:1009E800970500209385C5FB17060020130686FB94
:1009F80063FAC5008322050023A05500110591055F
:100A0800E3EAC5FE170500201305C5F99385019C87
:100A18006377B500232005001105E36DB5FEFD429F
:100A2800739002BC8D427390428093028008739049
:100A3800023097F2FF1F9382625C93E23200739058
:100A4800523037170040930770052300F7049307C7
:100A580080FA2300F7040F1000003C47B70600FA9D
:100A6800E116F58FB70600069506D58F3CC79702A5
:100A780000009382023B7390123473002030B71742
:100A8800004013078002238AE7040547238BE70405
:100A98003717004083476705858BEDFF0355C7056A
:100AA800520551818280011193050020054506CE2B
:100AB80022CC4AC84EC652C456C226CA2D23930514
:100AC800004005450D2391650545312BA165054578
:100AD800192B89450545012BB71700404D47A38CB5
:100AE800E70403C777051384019B014913671700BF
:100AF800A38BE704970A0000938A0A61371A00401B
:100B08009D49B3872A0183C7070051450509230C6E
:100B1800FA0497000020E780E0A295372310A4008C
:100B2800154597000020E780E0A183540400813F29
:100B3800090426950585231FA4FEE31439FDF24018
:100B48006244D2444249B249224A924A05618280AB
:100B580041118D451305703C06C6DD263D6581456E
:100B680013058503F12E371700408327870AB24003
:100B780093E7773C2324F70A41018280397122DC0C
:100B880026DA4ED652D456D25AD05ECE62CC06DE83
:100B98004AD866CA6AC86EC6170A0000130A8A537A
:100BA800814981449D4A37140040170C0000130CFA
:100BB800AC55054B938B01986381540D8327C40A68
:100BC80003270A00D98F2326F40A0D459700002031
:100BD800E780409793FDF90F938C019B0149130D12
:100BE8000005B3072C0183C707000945230CF4044B
:100BF80097000020E7800095593503D70C008147FE
:100C08009306F0020D466376A700198D9317050128
:100C1800C18333872D011377F70F63ECE600636513
:100C280096066378FD00B3073901DE9705472380F0
:100C3800E7000509890CE31659FB638154078327EC
:100C4800840A03270A00D98F2324F40A850493F41D
:100C5800F40FA147110A9D09E390F4F6F25062548B
:100C6800D2544259B259225A925A025BF24B624C00
:100C7800D24C424DB24D216182808327C40C93E748
:100C880007202326F40C91B7E3752BFBE373FDFAD9
:100C9800B3073901DE972380670161BF8327840C7E
:100CA80093E707202324F40C55B701119707002078
:100CB80023AA07CE9707002023A807CE22CE26CC4A
:100CC8004ACA4EC852C656C45AC283C781991383AA
:100CD800019891E78347230393F7F70F81C7854767
:100CE8002384F1801705000013054535014809469E
:100CF80001470D4E938E81809303000E1304100E4E
:100D08009304200E1309300E97090020938989C98E
:100D1800170F0000130F8F389D48170A0000130A99
:100D28006A2E854A9302F002A14FB307030183C7D5
:100D3800070093F7F70F89CB834705008345150014
:100D48006393C7076395C507630658000508090537
:100D5800E31DF6FD970700209387C7C49706002078
:100D68002382E6C42388E19003C71700A388E19093
:100D780003D72700DC432399E19023AAF190214768
:100D8800B78700402382E70203C767021377C70FBC
:100D98002383E7027244E2445249C249324AA24AD2
:100DA800124B0561828063941701E38F55F983C65E
:100DB8000E0093F6F60F8DCAB3861703D29603CBAF
:100DC8000E00AE9683C60600137BFB0F63090B006B
:100DD80099E6B3871703FA97AE9783C60700639916
:100DE8007600136717008DB7B3861703FA96C1BF4D
:100DF800639586001367270081BF63959600136784
:100E0800470099B7639526011367870035BF930795
:100E180016004E962300D60013F6F70F35B70111CA
:100E28001305800406CE22CC26CA4AC84EC652C430
:100E380097F0FF1FE780A025213BB531B787004019
:100E4800238007001307C0FC2386E700A386E7007A
:100E5800138701812398E7001387018D239AE70000
:100E680009472381E70249472383E702A381070053
:100E7800130790022380E700B716004003D7A601A6
:100E880013054006138401981367070C239DE60099
:100E98007D572383E700130710F8A380E7001D4759
:100EA8002381E700B7E700E03707400023A0E710F9
:100EB8009384019597F0FF1FE780A0691309000349
:100EC800A289268A8147B306F40003C70600338641
:100ED800F40085071377F70F2300E6002380060048
:100EE800E39327FF23840180513981473387F90031
:100EF800834607003307FA00034707001377F70F05
:100F0800631BD7008507E39327FF154597F0FF1F5D
:100F1800E780206445BF513BCDBFB787004003C77A
:100F28006700058B01CFA381070009472381E702EA
:100F380049472383E70205472383E70073002030EE
:100F4800914763EEB702170700001307A71A8A052F
:100F5800BA959C41BA978287B717004003A7470BF9
:100F68001345F5FF698F23AAE70A03A7070B698FC3
:100F780023A8E70A03A7070A798D23A0A70A828076
:100F8800B717004083A6470B1347F5FFF98E23AA2E
:100F9800D70A83A6070B558D23A8A70A83A6070A95
:100FA800758F23A0E70A8280B717004003A7470B75
:100FB800498F23AAE70A03A7070B1345F5FF45BF87
:100FC800B717004083A6470B1347F5FF758F23AA71
:100FD800E70A03A7070A598D4DB7B717004003A7BB
:100FE800470B498FEDB7B717004003D7A70109C5CD
:100FF800D98D239DB700828093C5F5FFF98DD5BFA4
:10100800001E1F2021222300000000000000000015
:101018000000000000000000000000002425262732
:1010280000000000000000000000000000000000B8
:1010380000000000000000000000000100020003A2
:10104800000400050006010001010102010301047A
:101058000105010602000201020202030204020560
:101068000206030003010302030303040305030646
:101078000402040304040405040605020503050428
:101088000505050606020603060406050606070208
:10109800070307040705070629141A0815171C2B48
:1010A800041607090A0BE11D1B06190511E0E3E206
:1010B800002C2C2C180C12132A00000D0E0F3328AC
:1010C8000000103637523800002C0050514F0000F5
:1010D80040000000010000000200000004000000C1
:1010E8008000000000010000000200000002000073
:1010F80068FEFFFF90FEFFFFB8FEFFFFD0FEFFFF78
:0C110800EAFEFFFF0001020304050600E0
:00000001FF
