:040000006F00901AE3
:100004000000000000000000900000208A0400208E
:10001400A9BDF9F3900000200000000000000000DA
:10002400900000209000002000000000000000006C
:10003400900000200000000090000020000000005C
:1000440090000020900000209000002090000020EC
:1000540090000020900000209000002090000020DC
:1000640090000020900000209000002090000020CC
:1000740090000020900000209000002090000020BC
:1000840090000020900000209000002090000020AC
:1000940001A073270080218B9387018409CB7327E8
:1000A400008023A0E18498435D9B731007800F10A8
:1000B400000037170040930670052300D704930609
:1000C40080FA2300D7040F1000008346B70493F688
:1000D400F60DA305D7042300070473260080944378
:1000E400A18AD18E7390068023A001840F10000092
:1000F40093760502638406180347A700118B25E74E
:1001040073270080218B09CB7327008023A0E1840F
:1001140098435D9B731007800F1000003717004051
:10012400930670052300D704930680FA2300D704AE
:100134000F1000008346A70093E646002305D7006E
:1001440023000704F32600809843218B558F7310F6
:10015400078023A001840F1000001307004B010047
:1001640001007D176DFF73270080218B09CB732756
:10017400008023A0E18498435D9B731007800F10D7
:10018400000037170040930670052300D704930638
:1001940080FA2300D7040F1000007D892314A700E0
:1001A400010001000100010023000704F326008080
:1001B4009843218B558F7310078023A001840F105F
:1001C400000073270080218B09CB7327008023A0B4
:1001D400E18498435D9B731007800F10000037176C
:1001E4000040930670052300D704930680FA230089
:1001F400D7040F1000000F100000B72600401306AC
:100204001005A383C68023000704F32600809843C7
:10021400218B558F7310078023A001840F100000D9
:1002240073270080218B09CB7327008023A0E184EE
:1002340098435D9B731007800F1000003717004030
:10024400930670052300D704930680FA2300D7048D
:100254000F1000008346B70493E60608A305D704ED
:1002640023000704732700809C43A18BD98F7390CC
:10027400078023A001840F10000082809376050478
:10028400638B06140347A700418B25E7732700807F
:10029400218B09CB7327008023A0E18498435D9BC5
:1002A400731007800F100000371700409306700585
:1002B4002300D704930680FA2300D7040F1000000C
:1002C4008346A70093E606012305D700230007040D
:1002D400F32600809843218B558F7310078023A049
:1002E40001840F1000001307007D010001007D1739
:1002F4006DFF73270080218B09CB7327008023A017
:10030400E18498435D9B731007800F10000037173A
:100314000040930670052300D704930680FA230057
:10032400D7040F1000009376F50193E60604231416
:10033400D700010001000100010023000704F32697
:1003440000809843218B558F7310078023A001846C
:100354000F100000130760046310E5047327008086
:10036400218B09CB7327008023A0E18498435D9BF4
:10037400731007800F1000003717004093067005B4
:100384002300D704930680FA2300D7040F1000003B
:10039400B72600400946B5B573270080218B09CBE9
:1003A4007327008023A0E18498435D9B731007802A
:1003B4000F10000037170040930670052300D70480
:1003C400930680FA2300D7040F100000B7260040DC
:1003D400130620053DB573270080218B09CB7327B5
:1003E400008023A0E18498435D9B731007800F1065
:1003F400000037170040930670052300D7049306C6
:1004040080FA2300D7040F1000008356870093E678
:10041400060C2314D700C5BB411181460146814512
:10042400114506C6192CF3270080A18B93860184FD
:1004340089CBF327008023A0F1849C42DD9B739039
:1004440007800F100000B7170040130770052380C2
:10045400E704130780FA2380E7040F10000003C7A2
:100464006704136717002383E704238007047327B3
:1004740000809C42A18BD98F7390078023A00184B4
:100484000F100000B240410182808146014681453F
:1004940011456522F3270080A18B1387018489CB42
:1004A400F327008023A0F1841C43DD9B7390078015
:1004B4000F100000B7170040930670052380D7047F
:1004C400930680FA2380D7040F100000FD5623966C
:1004D400D70223800704F32600801C43A18BD58F09
:1004E4007390078023A001840F100000F32700807D
:1004F400A18B89CBF327008023A0F1841C43DD9BCF
:10050400739007800F100000B71700409306700522
:100514002380D704930680FA2380D7040F100000A9
:1005240083C6670493E616002383D7042380070455
:10053400F32600801C43A18BD58F7390078023A0E2
:1005440001840F10000001A0BD473305F50201002E
:100554007D1575FD8280411122C426C206C6AA8477
:10056400014463179400B2402244924441018280C2
:1005740005041305803E4204C13F4180DDB72303D7
:10058400048015472303E48001002302A4808280B1
:1005940083076480E3CE07FE2303048082808307FD
:1005A4006480E3CE07FE0345448082808307648031
:1005B400E3CE07FE2302A4808280411126C44AC2EE
:1005C4004EC006C61377F50BAD47AA892E8995440C
:1005D4006306F70019456537653F8D444E854537F9
:1005E400FD59FD1463983401B240A2441249824972
:1005F40041018280135509011375F50F453F220906
:10060400CDB7011126CC06CEB704080051371545E5
:10061400BD37713769372AC6A53F32459377150030
:1006240089EB136515001375F50FF240E24405617B
:100634008280FD14E9FC0145CDBF397126DC4ADA1C
:100644004ED852D656D45AD25ED006DE62CE66CC8E
:10065400B7E700E07D5783AA070022C603AA470034
:1006640023A0E71823A2E718B71700401307700563
:100674002380E704130780FA2380E70483C7470431
:10068400930B75FFB684E20793FBFB0F8546AA899B
:100694002E8B328937240040E187015763FA7601B3
:1006A4006308D5008946130700026313D500015778
:1006B400D98F93F7F70FB71C00402382FC0411472E
:1006C4002303E4801305F00F5D3D094CD135636DC0
:1006D4007C11B7050700DA9537870700795563F26F
:1006E400E504B3879500636EF702370B0800A9474A
:1006F40033EB65016399F90689E48144513D26850C
:100704000DA0DA850945553D05090345F9FFFD149A
:10071400050B693D81C49377FB0FFDF7DD3569FD5A
:100724007D55B7170040130770052380E7041307AE
:1007340080FA2380E70403C74704418B2382E7043C
:10074400F250B7E700E023A0571123A24711E25467
:1007540032445259C259325AA25A125B825B724CC9
:10076400E24C21618280A5476395F90685691309E6
:10077400F00FB3069900B3742B01B6941349F9FF33
:10078400B3749900856B33796901416B9387F9FFE1
:10079400B3F7270199E363FC340193D94900C147B6
:1007A400E3E637FF99BF0569C1697D19D9B7130518
:1007B400800D6388690113050002638479011305C0
:1007C4001008CA85DD3B353D21DD4E99B3843441A3
:1007D400D9B7DA852D45D533CA94E30099F20509D2
:1007E4007D3BA30FA9FED5BF9387F9FF93F7F70FBE
:1007F4006361FC0C83C71C0413073008631FF704F0
:1008040037070800636BEB04B3079B00B7061000BF
:1008140063F5D704334BEB0089476393F90689806A
:10082400D549E38C04ECDA850945413B11090327DA
:10083400C9FF91472320E48003076480E34E07FE49
:1008440023033481FD17EDFBFD14110B81C4937751
:10085400FB0FE9FF7D3371F5E1B5B717004003C71E
:100864005704B70708001377070219E3B78707008F
:100874007955E378FBEA33079B00E3FFE7F855B5C6
:100884008547E382F9F2DA852D45053B9389F4FF28
:10089400E38504E6293393F7390091EB832604803A
:1008A4000327090093074900E39AE6E43E89CE84CE
:1008B400F1BFB5476396F9001305900BC93135BDF7
:1008C400B1471305B00AE38BF9FE99476391F90424
:1008D400B7050800B365BB002D45C53181448D4B78
:1008E400A149753963967401832704802320F90094
:1008F4008504E39834FF8327048013172B01635581
:1009040007002312F900D5BB2322F900FDB39D474C
:100914006399F90281451305B0044531BD44232090
:10092400090023220900FD599D3993F77400CA97E1
:1009340003C70700FD14398D2380A700E39634FF15
:100944006DBBA1476392F9046D398144630D0B00BB
:100954008D479304C0036308FB00930400056304FC
:100964008B01930440041375C507E30895D8194512
:10097400393139390545213126850D3909453D314E
:100984004931E31C05D669BB91476399F900130506
:100994006006F536F53E130590090DB7E38F09D4CB
:0409A400F154A9BBA6
:1009A80097110020938101801771002013010165C0
:1009B8001305400097F5FF1F93854564170600202F
:1009C800130606FE63FAC5008322050023A055001E
:1009D80011059105E3EAC5FE171500001305C52D9D
:1009E800970500209385C5FB1386818063FAC500AF
:1009F8008322050023A0550011059105E3EAC5FEF1
:100A0800138581809385819B6377B500232005003A
:100A18001105E36DB5FEFD42739002BC8D427390E3
:100A28004280930280087390023097F2FF1F9382EE
:100A3800E25C93E23200739052303717004093071C
:100A480070052300F704930780FA2300F7040F10BA
:100A580000003C47B70600FAE116F58FB706000616
:100A68009506D58F3CC79712000093820296739023
:100A78001234730020303D432A876373C30293778F
:100A8800F700BDEFADE5937606FF3D8ABA960CC335
:100A98004CC30CC74CC74107E36BD7FE11E28280F9
:100AA800B306C3408A069702000096966780A600A0
:100AB8002307B700A306B7002306B700A305B700AE
:100AC8002305B700A304B7002304B700A303B700A6
:100AD8002303B700A302B7002302B700A301B7009E
:100AE8002301B700A300B7002300B700828093F565
:100AF800F50F93968500D58D93960501D58D61B731
:100B0800939627009702000096968682E78086FAD9
:100B18009680C1171D8F3E96E374C3F8A5B7A14709
:100B28006300F5021D478147638AE5000D47854745
:100B38006376A70093B5250093C715003E8582808C
:100B48008147EDBF8D47238CF180B7870040238014
:100B58000702130780FC2381E7028280A38A0182AF
:100B6800A382018223820182238F0182A38E0182C4
:100B7800A38301822383018285471707002023036B
:100B8800F7E2238C0180FD57238AF182B787004062
:100B9800A3810700238207022380070209472381D4
:100BA800E70229472383E7028280011122CC26CA63
:100BB80006CE4AC84EC683D4C180930700041304E6
:100BC800000463E397002684420441809379F40F7C
:100BD800B9C09387818003A90700228613854184C1
:100BE800CA85229933848440EF00306F23A4218181
:100BF80023968180B78700402380370303C72702E5
:100C08001377C70F2381E702F2406244D244424976
:100C1800B24905618280A38C0180E9BF23A4A18029
:100C2800B28763F3C500AE872396F180A38C018059
:100C380009E68947238CF18082808547238CF180DF
:100C4800ADB7011106CE22CC26CA4AC852C4371401
:100C580000404EC6230CA40409452E8997000020A5
:100C6800E780408E93078002230AF4048547230B0C
:100C7800F404EF009063BD642A8A938404A6834732
:100C8800640593096405858B89EB8357C40505457D
:100C9800D207D1832310F90005A0EF0010613305B6
:100CA8004541E3FEA4FC23800900938781839C438C
:100CB8000145850723ACF182F2406244D24442499F
:100CC800B249224A05618280411122C406C626C261
:100CD80037840040834464008347740093F4F40F1E
:100CE80013F7140009CB9D3D23039400B24022441E
:100CF80092444101828013F724006304071093F79C
:100D0800F70F1397870161876356073603488400F6
:100D1800A1471378F80F6315F83403C6B18403C3E9
:100D2800A18483C5718403C59184220683C7618425
:100D380083C6818433666600A205238C0180220560
:100D48007D53DD8D558D238A6182C205A38C018078
:100D58004205130320FCC185418503C7418483C82C
:100D680051849397050193160501230164021943E1
:100D7800C183C182639A680C134807080543636FEF
:100D88000343930500086317B70413070010639A19
:100D9800E7006392063EC945171500001305C5EC28
:100DA80099A813070020639BE7006396063C930508
:100DB8002002171500001305E5E835A813070030D1
:100DC800639BE73A6399063A9145171500001305A6
:100DD80065EE15A06391063A096793060710638FBD
:100DE800D704130707206398E7389305F00317150E
:100DF8000000130525E11D35B78700400947238307
:100E0800E70093F7440095C3B787004083C75700AE
:100E1800918B3337F000238FE18299E3A38A018213
:100E2800B787004011472383E700C188E38004ECBB
:100E3800B787004041472383E7004DBDA5451715F7
:100E48000000130545E145BF39EB154863900803D9
:100E58001305F007636FF530639F063049E283C6D8
:100E6800D183B5EE238AB182F13979B725486390E9
:100E780008310545636FF52E639F062E2DE2A38E7C
:100E8800B182A38A0182A382018223820182B78769
:100E980000402382070229472383E702F1B713039F
:100EA8000008631E67306394082D6394072C6394CD
:100EB800062C85466315D6029387D18383C707001E
:100EC8002388F1800546854595A813081008631105
:100ED80007056392062A83C6D183639E062E83C6BE
:100EE800D183638A06289306100A631AD710054728
:100EF8006391E80E130700106392E70C9387C18192
:100F08009843DC43A14523A8E18023AAF1803DA0B2
:100F180013032008631B67261375F5F7630D052A6D
:100F2800639B062583C7D1836387072483C75182C0
:100F38002388F1800946A3880180894513850181AA
:100F48005DBD09456317A70413F5D80F054863125B
:100F580005236390072213051008639CA620631CD1
:100F6800062083C7D183638807209387D8FF93B768
:100F78001700A382F1820D4723820182A38A01828E
:100F8800AD476383E800A947378700402303F7028A
:100F9800E1BD13051008631CA71E2945639BA81C07
:100FA8006399071C6399061C8546E31AD6F283C623
:100FB800D183E38606F22388018029B7130700202E
:100FC800639BE71A9387718283C707002388F180A0
:100FD800DDBD89466399D800639F071893876182AE
:100FE800631BE618D5B78D466397D818639507181D
:100FF8006313E618970700209387C79AF1B79306FB
:101008001002631AD7162547639DE80013070020CE
:101018006393E71685476310F6169147238CF18092
:10102800E1BB2947639FE80013F7F70F598E631454
:101038000614A1832383F182EF00302723A8A1821D
:1010480025B52D476399E81205476366F7126314BF
:101058000612970700202387B794A38A018229B52F
:10106800238C0180FD57238AF1829307F0FC23012A
:10107800F40259B313F7F70393060002630CD7027F
:10108800930610026305D70AE31807D693F70704F7
:10109800E38407D683C781811147639EE7068347A8
:1010A800840005476319F70C83C74184FD8BA3832C
:1010B800F1825DBB83C7818105476398E70283D7C7
:1010C800C18081E783C7918199CB378700408347E7
:1010D800270293C707042301F702C13C31BB8947A4
:1010E800238CF180930720F859B70D47E396E7D092
:1010F80083C741831307F00F6384E700A301F4005B
:10110800FD57238AF182238C0180B7870040094765
:101118002381E702D5B1FD1793F7F70F0547636CF5
:10112800F7048347840093F7F70FB1E7E9BF8347D4
:10113800640293C707042303F4028347640293F706
:10114800C70F93E727002303F40293874188984346
:10115800DC4323A4E18223A6F1828547A38AF18296
:1011680023820182EF00701423A8A18271B1638ADF
:101178000804E38606D6238C0180FD57238AF18272
:101188001307F0FCB787004061B7E30FC7DA0545DE
:10119800E311A7FE2D45E39EA8FCE1FFE9FEE3105D
:1011A80006D483C6D183E38C06D2A38A0182A382A4
:1011B800018223820182B7870040F1B95DDBE392A7
:1011C80008D8E39007D80948E31D06D71308000894
:1011D800E31D07CFCDF28147A1BB397126DA4ED680
:1011E80052D456D25AD006DE22DC4AD85ECE231715
:1011F800010081448549971A0000938A2AA8138B15
:101208008199394AB3879A0083CB07009305E10097
:101218005E85053C41CD114901449305E1005E8599
:101228000D3411E181498357E1007D191379F90FD4
:101238003E94593CE31309FE098042049397140035
:101248004180DA97239087008504E39D44FBAD3CF9
:10125800371700408327870C8D451305001093E747
:1012680007102324F70CEF004078294597F0FF1F5B
:10127800E780402D814513050010EF000077EF004F
:10128800D0029D642A84371900409384F45283273E
:10129800490C93F7071089EFEF003001018D130413
:1012A800C003335585022317A10039A8814969BFB6
:1012B800EF00A07F018DE3FCA4FC938781839C430E
:1012C8008149850723ACF1828357E100239AF19A7B
:1012D800E53AF25062544E85D2544259B259225AD4
:1012E800925A025BF24B216182805D711306C00342
:1012F8008145480086C6A2C4A6C2CAC0EFF0AFF7AF
:1013080013068003814513850192238E018223A849
:10131800019023AA019023AC0190239E0190238F72
:10132800019023A0019023A2019023A40190239669
:1013380001902387019013040002EFF0CFF3938408
:10134800819923AE018023A001823D49793535C5B5
:101358004C002E87814793961700A69603D6060061
:10136800144385071107B296232ED7FEE39527FF6E
:101378007D141374F40F79F81386418C0147138395
:101388008195938881973D489C41931617003305B2
:10139800D3009583C207C1832310F5008357050046
:1013A800C69623900600A2071CC2050791051106E0
:1013B800E31C07FD8547238EF182B64026449644F8
:1013C80006496161828071711305800406D726D3AE
:1013D80022D54AD14ECF52CD56CB5AC95EC762C527
:1013E80066C36AC1EEDE97F0FF1FE78040CAB7F711
:1013F80000E023A00700814694C70147D8C77D565F
:1014080090CBFD56D4CB15473D6598C38145130550
:10141800F53F0D2BB9659385F5E00545952DB71476
:10142800004083A7C40C8D451305002093E70720CF
:1014380023A6F40C5D2B8145130500107D23FD21A7
:10144800B7E700E03707400023A0E7180F100000B7
:101458003784004023000400930700042306F400A7
:10146800A3060400938741842318F40093874188D6
:10147800231AF400EFF08FEEFD5723010400230335
:10148800F40083D7A40193E7070C239DF400930786
:1014980010F8A300F400930790022300F40031250C
:1014A80037B41201AA841304F4870125058D637EDD
:1014B800A40E253DDD2BB79704009387F73DAA843A
:1014C8002AC63EC81384C181EFF01F80F92BC2479A
:1014D800058D63FAA704D12B83C7C183AA84638BC4
:1014E8000742E5396316050C130680038145138509
:1014F8000192EFF04FD823A8019023AA019023ACC2
:101508000190239E0190238F019023A0019023A294
:10151800019023A40190239601902387019023AE84
:10152800018023A0018283C76182014595C3B52B41
:10153800938701839C4337B70300130707981D8DD2
:1015480083C76182B387E7023335F5001345150079
:1015580083C7D183B5DB03C7418283C7E183D98FB2
:1015680003C75182D98FE39107F683C7518389CB8B
:1015780001E921469385818222852D2BE30605F416
:101588001C4023A2F1885C4023A4F188854723826C
:10159800F1822147B78700402382E70203C7670229
:1015A8001377C70F2383E70205B7EFF0EFF1F5BD17
:1015B800138F81999388418C138801911386019028
:1015C800814681490149B940FA8B938A8197094C30
:1015D800930C0008138B8195194D854FBD43939546
:1015E8001600B307BF0083AE080003D7070093D7E0
:1015F8008E401D8F639E1616BA8763530700814776
:10160800C207C18321451143834208006383020056
:101618001A85420733AEA7004187B38DBA00134E2F
:101628001E002390ED00638DC201034706000507E5
:101638001377F70F2300E6006376EC002300C80158
:10164800230006000347080063D3A7020DE31353E2
:10165800130063FE6700B387BB0083D70700A207A8
:10166800B387D741B3C79703BE9E23A0D80183A7EA
:101678000800DA95A187C207C1832390F50009CB3A
:101688006364DD10B397DF003369F9001379F90F4C
:101698008506910805080506E39376F4130680038A
:1016A80081452818EFF02FBD8147814DA14633D7DA
:1016B800F900058B01C7850D93FDFD0F8507E3989C
:1016C800D7FE814701471D46B356F900858A81C672
:1016D80005071377F70F8507E398C7FE938A0192EA
:1016E800130A81035683528E014D014C014BD68B50
:1016F80005468542B3D8A9013318A601937EFD0F8C
:1017080093F818001378F80F814C768593F5FC0F41
:1017180016D672D41AD23AD042CE46CC76CAEFF058
:101728000FC0D24EE248724802571253225E1D4F34
:10173800A14F0546B2522DC563840806B3579901D7
:10174800858BB9CFB3079E016389CD006307C700B6
:10175800B305930183C50500A9C123805700B317BA
:101768009601B367FC00336B680113FCF70F0DA8F3
:101778001355F741B347E500898FC207C1831305A5
:1017880000051303D00249B5938796FFB397FF006E
:10179800B3E9F90093F9F90FE5BD83C70700E1F351
:1017A800850CE394ECF7050D1D0E1D03E314FDF500
:1017B800134BFBFFB3F96901638309029347FCFFED
:1017C8003379F900630D09009387F9FF1307F9FFCF
:1017D800B3F7370133772701D98F638F070E1306C5
:1017E80080032C1813850192CD2C83C76B0383CCFF
:1017F8008B01014B014DB3ECFC00094923AE01807C
:1018080023A001821D4CB30B8B03937DFB0F8149F1
:1018180093F5F90F6E85EFF08FB085461706000037
:1018280013064637214821C5B3873A0183C7070005
:101838009DCF63870C00B307760183C7070089EB48
:101848009707000093878738DE9783C7070085C30B
:10185800138707021377F70F6364EC0A0347040042
:10186800938707F2B397F600D98F238EF180850905
:10187800850BE39F89F9050B9D0AE3160BF9E30431
:101888000DCA93071010239FF1802390F1822391B2
:10189800F18251B99375FB0F63810C02B35769014B
:1018A800858B81CF6A8532CAEFF06FA721475246F0
:1018B80009C5B3076A012380C700050BE31CBBFDFC
:1018C800050C1D0AE30DECF0B3DC8901137DFC0F58
:1018D80093FC1C00014B7DBF014C05469D4D2147E3
:1018E800E5B70507B305E40083C5F5FFE381F5F81F
:1018F8009375F70FE3E725FF63762C01054D85BF48
:101908000947FDB71307190022992300F900137935
:10191800F70FB1BFB2473307F540B78793039387F3
:10192800F76FE3F2E7C0D13226C6F5BEB71700401D
:101938004D47A38CE70403C7770513671700A38BEC
:10194800E7048280914763EEB70217070000130788
:10195800E7338A05BA959C41BA978287B717004042
:1019680003A7470B1345F5FF698F23AAE70A03A7C7
:10197800070B698F23A8E70A03A7070A798D23A015
:10198800A70A8280B717004083A6470B1347F5FFC5
:10199800F98E23AAD70A83A6070B558D23A8A70A71
:1019A80083A6070A758F23A0E70A8280B71700402D
:1019B80003A7470B498F23AAE70A03A7070B134579
:1019C800F5FF45BFB717004083A6470B1347F5FF40
:1019D800758F23AAE70A03A7070A598D4DB7B717CA
:1019E800004003A7470B498FEDB7914763EEB70255
:1019F800170700001307C72A8A05BA959C41BA97AA
:101A08008287B717004003A7470D1345F5FF698F75
:101A180023AAE70C03A7070D698F23A8E70C03A7E0
:101A2800070C798D23A0A70C8280B717004083A6E6
:101A3800470D1347F5FFF98E23AAD70C83A6070D88
:101A4800558D23A8A70C83A6070C758F23A0E70C38
:101A58008280B717004003A7470D498F23AAE70CD8
:101A680003A7070D1345F5FF45BFB717004083A629
:101A7800470D1347F5FF758F23AAE70C03A7070C3B
:101A8800598D4DB7B717004003A7470D498FEDB7DC
:101A9800B717004003D7A70109C5D98D239DB70003
:101AA800828093C5F5FFF98DD5BFB7F700E0884769
:101AB800CC47828001476314E60001458280B30762
:101AC800E5000507B386E50083C7070083C6F6FF70
:101AD800E383D7FE3385D7408280B3C7A5008D8BBB
:101AE8003307C50081E78D4763EEC700AA87637097
:101AF800E50A83C6050085078505A38FD7FEE3EAB7
:101B0800E7FE828093763500AA8791CA83C60500CE
:101B180085078505A38FD7FE93F63700FDB7937623
:101B2800C7FF138606FE63F0C70683A3050083A2DA
:101B3800450083AF850003AFC50083AE050103AE42
:101B4800450103A3850183A8C5019385450223A008
:101B5800770003A8C5FF23A2570023A4F70123A6F3
:101B6800E70123A8D70123AAC70123AC670023AE46
:101B780017019387470223AE07FF75B79041910776
:101B8800910523AEC7FEE3EBD7FEE3E4E7F68280D8
:101B9800001E1F202122230000000000000000007A
:101BA8000000000000000000000000000000002706
:101BB80026252400000000000000000000000000AE
:101BC800000000000000000029141A0815171C2B3B
:101BD800041607090A0BE11D1B06190511E0E3E2CB
:101BE800002C2C2C00002A13120C18000028330F8C
:101BF8000E0D0000385237361000004F5150002C9F
:101C080005010906A101050719E029E715002501C5
:101C18007501950881029501750881019505750181
:101C28000508190129059102950175039101950689
:101C38007508150025650507190029658100C0008C
:101C48000902220001010080320904000001030199
:101C58000100092111010001223F00070581030845
:101C6800000A00001201100100000040861A2455E5
:101C78000001000000010000000102030405060A3B
:101C88000908070B0C0D0000D4FCFFFFFCFCFFFF4C
:101C980024FDFFFF3CFDFFFF56FDFFFF66FDFFFF34
:101CA8008EFDFFFFB6FDFFFFCEFDFFFFE8FDFFFF46
:041CB8000403090414
:0C1CBC000000000001000000000000001B
:00000001FF
