:040000006F00901AE3
:100004000000000000000000900000208A0400208E
:10001400A9BDF9F3900000200000000000000000DA
:10002400900000209000002000000000000000006C
:10003400900000200000000090000020000000005C
:1000440090000020900000209000002090000020EC
:100054009000002090000020BE10000090000020BE
:1000640090000020900000209000002090000020CC
:1000740090000020900000209000002090000020BC
:1000840090000020900000209000002090000020AC
:1000940001A073270080218B9387418109CB7327AB
:1000A400008023AAE18098435D9B731007800F10A2
:1000B400000037170040930670052300D704930609
:1000C40080FA2300D7040F1000008346B70493F688
:1000D400F60DA305D7042300070473260080944378
:1000E400A18AD18E7390068023AA01800F1000008C
:1000F40093760502638406180347A700118B25E74E
:1001040073270080218B09CB7327008023AAE18009
:1001140098435D9B731007800F1000003717004051
:10012400930670052300D704930680FA2300D704AE
:100134000F1000008346A70093E646002305D7006E
:1001440023000704F32600809843218B558F7310F6
:10015400078023AA01800F1000001307004B010041
:1001640001007D176DFF73270080218B09CB732756
:10017400008023AAE18098435D9B731007800F10D1
:10018400000037170040930670052300D704930638
:1001940080FA2300D7040F1000007D892314A700E0
:1001A400010001000100010023000704F326008080
:1001B4009843218B558F7310078023AA01800F1059
:1001C400000073270080218B09CB7327008023AAAA
:1001D400E18098435D9B731007800F100000371770
:1001E4000040930670052300D704930680FA230089
:1001F400D7040F1000000F100000B72600401306AC
:100204001005A383C68023000704F32600809843C7
:10021400218B558F7310078023AA01800F100000D3
:1002240073270080218B09CB7327008023AAE180E8
:1002340098435D9B731007800F1000003717004030
:10024400930670052300D704930680FA2300D7048D
:100254000F1000008346B70493E60608A305D704ED
:1002640023000704732700809C43A18BD98F7390CC
:10027400078023AA01800F10000082809376050472
:10028400638B06140347A700418B25E7732700807F
:10029400218B09CB7327008023AAE18098435D9BBF
:1002A400731007800F100000371700409306700585
:1002B4002300D704930680FA2300D7040F1000000C
:1002C4008346A70093E606012305D700230007040D
:1002D400F32600809843218B558F7310078023AA3F
:1002E40001800F1000001307007D010001007D173D
:1002F4006DFF73270080218B09CB7327008023AA0D
:10030400E18098435D9B731007800F10000037173E
:100314000040930670052300D704930680FA230057
:10032400D7040F1000009376F50193E60604231416
:10033400D700010001000100010023000704F32697
:1003440000809843218B558F7310078023AA018066
:100354000F100000130760046310E5047327008086
:10036400218B09CB7327008023AAE18098435D9BEE
:10037400731007800F1000003717004093067005B4
:100384002300D704930680FA2300D7040F1000003B
:10039400B72600400946B5B573270080218B09CBE9
:1003A4007327008023AAE18098435D9B7310078024
:1003B4000F10000037170040930670052300D70480
:1003C400930680FA2300D7040F100000B7260040DC
:1003D400130620053DB573270080218B09CB7327B5
:1003E400008023AAE18098435D9B731007800F105F
:1003F400000037170040930670052300D7049306C6
:1004040080FA2300D7040F1000008356870093E678
:10041400060C2314D700C5BB411181460146814512
:10042400114506C6192CF3270080A18B93864181C0
:1004340089CBF327008023AAF1809C42DD9B739033
:1004440007800F100000B7170040130770052380C2
:10045400E704130780FA2380E7040F10000003C7A2
:100464006704136717002383E704238007047327B3
:1004740000809C42A18BD98F7390078023AA0180AE
:100484000F100000B240410182808146014681453F
:1004940011456522F3270080A18B1387418189CB05
:1004A400F327008023AAF1801C43DD9B739007800F
:1004B4000F100000B7170040930670052380D7047F
:1004C400930680FA2380D7040F100000FD5623966C
:1004D400D70223800704F32600801C43A18BD58F09
:1004E4007390078023AA01800F100000F327008077
:1004F400A18B89CBF327008023AAF1801C43DD9BC9
:10050400739007800F100000B71700409306700522
:100514002380D704930680FA2380D7040F100000A9
:1005240083C6670493E616002383D7042380070455
:10053400F32600801C43A18BD58F7390078023AAD8
:1005440001800F10000001A0BD473305F502010032
:100554007D1575FD8280411122C426C206C6AA8477
:10056400014463179400B2402244924441018280C2
:1005740005041305803E4204C13F4180DDB72303D7
:10058400048015472303E48001002302A4808280B1
:1005940083076480E3CE07FE2303048082808307FD
:1005A4006480E3CE07FE0345448082808307648031
:1005B400E3CE07FE2302A4808280411126C44AC2EE
:1005C4004EC006C61377F50BAD47AA892E8995440C
:1005D4006306F70019456537653F8D444E854537F9
:1005E400FD59FD1463983401B240A2441249824972
:1005F40041018280135509011375F50F453F220906
:10060400CDB7011126CC06CEB704080051371545E5
:10061400BD37713769372AC6A53F32459377150030
:1006240089EB136515001375F50FF240E24405617B
:100634008280FD14E9FC0145CDBF397126DC4ADA1C
:100644004ED852D656D45AD25ED006DE62CE66CC8E
:10065400B7E700E07D5783AA070022C603AA470034
:1006640023A0E71823A2E718B71700401307700563
:100674002380E704130780FA2380E70483C7470431
:10068400930B75FFB684E20793FBFB0F8546AA899B
:100694002E8B328937240040E187015763FA7601B3
:1006A4006308D5008946130700026313D500015778
:1006B400D98F93F7F70FB71C00402382FC0411472E
:1006C4002303E4801305F00F5D3D094CD135636DC0
:1006D4007C11B7050700DA9537870700795563F26F
:1006E400E504B3879500636EF702370B0800A9474A
:1006F40033EB65016399F90689E48144513D26850C
:100704000DA0DA850945553D05090345F9FFFD149A
:10071400050B693D81C49377FB0FFDF7DD3569FD5A
:100724007D55B7170040130770052380E7041307AE
:1007340080FA2380E70403C74704418B2382E7043C
:10074400F250B7E700E023A0571123A24711E25467
:1007540032445259C259325AA25A125B825B724CC9
:10076400E24C21618280A5476395F90685691309E6
:10077400F00FB3069900B3742B01B6941349F9FF33
:10078400B3749900856B33796901416B9387F9FFE1
:10079400B3F7270199E363FC340193D94900C147B6
:1007A400E3E637FF99BF0569C1697D19D9B7130518
:1007B400800D6388690113050002638479011305C0
:1007C4001008CA85DD3B353D21DD4E99B3843441A3
:1007D400D9B7DA852D45D533CA94E30099F20509D2
:1007E4007D3BA30FA9FED5BF9387F9FF93F7F70FBE
:1007F4006361FC0C83C71C0413073008631FF704F0
:1008040037070800636BEB04B3079B00B7061000BF
:1008140063F5D704334BEB0089476393F90689806A
:10082400D549E38C04ECDA850945413B11090327DA
:10083400C9FF91472320E48003076480E34E07FE49
:1008440023033481FD17EDFBFD14110B81C4937751
:10085400FB0FE9FF7D3371F5E1B5B717004003C71E
:100864005704B70708001377070219E3B78707008F
:100874007955E378FBEA33079B00E3FFE7F855B5C6
:100884008547E382F9F2DA852D45053B9389F4FF28
:10089400E38504E6293393F7390091EB832604803A
:1008A4000327090093074900E39AE6E43E89CE84CE
:1008B400F1BFB5476396F9001305900BC93135BDF7
:1008C400B1471305B00AE38BF9FE99476391F90424
:1008D400B7050800B365BB002D45C53181448D4B78
:1008E400A149753963967401832704802320F90094
:1008F4008504E39834FF8327048013172B01635581
:1009040007002312F900D5BB2322F900FDB39D474C
:100914006399F90281451305B0044531BD44232090
:10092400090023220900FD599D3993F77400CA97E1
:1009340003C70700FD14398D2380A700E39634FF15
:100944006DBBA1476392F9046D398144630D0B00BB
:100954008D479304C0036308FB00930400056304FC
:100964008B01930440041375C507E30895D8194512
:10097400393139390545213126850D3909453D314E
:100984004931E31C05D669BB91476399F900130506
:100994006006F536F53E130590090DB7E38F09D4CB
:0409A400F154A9BBA6
:1009A80097110020938101801771002013010165C0
:1009B8001305400097F5FF1F93854564170600202F
:1009C800130606FE63FAC5008322050023A055001E
:1009D80011059105E3EAC5FE171500001305058EFC
:1009E800970500209385C5FB17060020130686FB94
:1009F80063FAC5008322050023A05500110591055F
:100A0800E3EAC5FE170500201305C5F9938581A201
:100A18006377B500232005001105E36DB5FEFD429F
:100A2800739002BC8D427390428093028008739049
:100A3800023097F2FF1F9382625C93E23200739058
:100A4800523037170040930770052300F7049307C7
:100A580080FA2300F7040F1000003C47B70600FA9D
:100A6800E116F58FB70600069506D58F3CC79702A5
:100A780000009382E25473901234730020304111C5
:100A880022C406C637140040230CA4040945970065
:100A98000020E78020AB93078002230AF4048547EF
:100AA800230BF4043717004083476705858BEDFF58
:100AB8000355C705B2402244520551814101828045
:100AC80041118D451305001006C6092D3717004042
:100AD8008327C70CB240814593E707102326F70CFC
:100AE800130500204101DDAB371700408327870C31
:100AF800011106CE93E707102324F70C13050020F5
:100B08008145E92B85670145B716004093878738EB
:100B180003A7460C1377072015EB0505420541810D
:100B2800E318F5FE0545371700408327C70C93E700
:100B380007102326F70C231701001307703E83576D
:100B4800E100637AF700F2400561828013355501B0
:100B580013451500C9BF8357E1008507C207C18344
:100B68002317F100E9BF797193050060054506D6A2
:100B78004ECE52CC56CA5AC85EC622D426D24AD0C5
:100B88000925B1650545F52B89450545DD2BB14599
:100B98000545C52B8965938505800545DD23854574
:100BA8000545C523B71700404D47A38CE70403C785
:100BB8007705138A819B970900009389A96F1367AA
:100BC8001700A38BE704970A0000938A1A6F371B54
:100BD80000409D4BD284014403C90900154589048E
:100BE800230C2B0597000020E780C0954A85413DDE
:100BF8000D4597000020E780E09422854935239F22
:100C0800A4FE094597000020E780C09303D9E4FFBC
:100C18002285B5354A9505850504239FA4FE1374DE
:100C2800F40FE31B74FB8509390AE39559FB225439
:100C3800B25092540259F249624AD24A424BB24BDC
:100C48004561BDBD5D71A6C252DC56DA5AD85ED682
:100C580062D466D26AD086C6A2C4CAC04EDE6ECE40
:100C6800938C819B014C8144954A970B0000938B90
:100C78002B53054D138B81981D4A1384F4FF9377EA
:100C8800F40F63E9FA008A07DE979843B717004024
:100C98005E970287B71700401307000423A6E70AE8
:100CA80019A023A6A70B0D4597000020E78080898F
:100CB8009376FC0FE68D014905489379F90F4E8527
:100CC80042C636C46D3B83D80D008147A246130641
:100CD80000038D4513070005324863F7A800330564
:100CE800154193170501C183B69993F9F90F638BE1
:100CF800C90063E995046377F700B3078901DA97B8
:100D0800238007010509890DE31949FB1374F40FC2
:100D180063E48A04970700009387074A0A043E940D
:100D280018403E97B71700400287094785BF11470B
:100D3800B5B7130700089DB71307001085B7130749
:100D48000020A9BFE3702DFDE37EF7FAB307890100
:100D5800DA972380A7017DB7371700408327870AD2
:100D680093E707042324F70A850493F4F40F1D0C72
:100D7800B90CE39444F18D3B2DC9094509330D4560
:100D8800FD391145ED391545DD392644B6409644FF
:100D98000649F259625AD25A425BB25B225C925CB3
:100DA800025DF24D19456161D9B903A7870A136736
:100DB800170023A4E70A4DBF03A7870A1367270074
:100DC800CDBF03A7870A13674700E5B703A7870ABC
:100DD80013670708F9BF03A7870A13670710D1BF6E
:100DE80003A7870A13670720E9B7B6402644964445
:100DF8000649F259625AD25A425BB25B225C925C53
:100E0800025DF24D6161828001119707002023ABDA
:100E180007B89707002023A907B822CE26CC4ACACC
:100E28004EC852C656C45AC283C7019A13838198C2
:100E380091E78347230393F7F70F81C785472388F3
:100E4800F180170500001305253C014809460147B4
:100E58000D4E938E01819303000E1304100E93041C
:100E6800200E1309300E970900209389A9B3170F94
:100E78000000130F6F3F9D48170A0000130A4A35F8
:100E8800854A9302F002A14FB307030183C7070005
:100E980093F7F70F89CB8347050083451500639EB9
:100EA800C7056390C5076306580005080905E31DD3
:100EB800F6FD970700202387E7AE170500201305E6
:100EC80065AE138881808147AA86C2882143B3050D
:100ED800F5003306F80083C5050003460600639A4B
:100EE800C5088507E39567FE7244E2445249C24942
:100EF800324AA24A124B0561828063941701E38447
:100F080055FB83C60E0093F6F60F8DCAB3861703FA
:100F1800D29603CB0E00AE9683C60600137BFB0F5A
:100F280063090B0099E6B3871703FA97AE9783C650
:100F380007006399760013671700B5B7B3861703E0
:100F4800FA96C1BF6395860013672700A9BF63950A
:100F580096001367470081BF6395260113678700D2
:100F680099B7930716004E962300D60013F6F70F8D
:100F78001DBF814721463385F60003450500B3852B
:100F8800F80085072380A500E397C7FE238CE1902E
:100F980003C71600A38CE19003D72600239DE19098
:100FA800D84223AEE190378700402302F7028347F7
:100FB800670293F7C70F2303F7023DB70111130523
:100FC800800406CE22CC26CA4AC84EC652C497F020
:100FD800FF1FE780C00B413EB78700402380070012
:100FE8001307C0FC2386E700A386E70013878181E7
:100FF8002398E7001387818D239AE7000947238107
:10100800E70249472383E702A381070013079002F9
:101018002380E700B716004003D7A6011305400652
:10102800138481981367070C239DE6007D5723835B
:10103800E700130710F8A380E7001D472381E700A6
:10104800B7E700E03707400023A0E71093848195B5
:1010580097F0FF1FE780E04F13090003A289268A53
:101068008147B306F40003C706003386F4008507FA
:101078001377F70F2300E60023800600E39327FF8A
:1010880023880180C13681473387F90083460700EA
:101098003307FA00034707001377F70F631BD700DE
:1010A8008507E39327FF154597F0FF1FE780604A00
:1010B80045BF993BCDBFB787004003C76700058B85
:1010C80001CFA381070009472381E702494723830A
:1010D800E70205472383E70073002030914763EE5A
:1010E800B702170700001307A71B8A05BA959C418A
:1010F800BA978287B717004003A7470D1345F5FF36
:10110800698F23AAE70C03A7070D698F23A8E70CAB
:1011180003A7070C798D23A0A70C8280B71700407E
:1011280083A6470D1347F5FFF98E23AAD70C83A68C
:10113800070D558D23A8A70C83A6070C758F23A030
:10114800E70C8280B717004003A7470D498F23AAF1
:10115800E70C03A7070D1345F5FF45BFB717004078
:1011680083A6470D1347F5FF758F23AAE70C03A73E
:10117800070C598D4DB7B717004003A7470D498F86
:10118800EDB7B717004003D7A70109C5D98D239D2F
:10119800B700828093C5F5FFF98DD5BF06FBFFFF29
:1011A8008EFBFFFF92FBFFFF96FBFFFF9CFBFFFF01
:1011B800A2FBFFFFF6FBFFFF04FCFFFF0EFCFFFF97
:1011C80018FCFFFF22FCFFFF2CFCFFFF001E1F2066
:1011D80021222300000000000000000000000000A1
:1011E8000000000000000000242526270000000061
:1011F80000000000000000000000000000000000E7
:1012080000000000000000010002000300040005C7
:1012180000060100010101020103010401050106A4
:101228000200020102020203020402050206030090
:101238000301030203030304030503060402040372
:10124800040404050406050205030504050505064E
:101258000602060306040605060607020703070436
:101268000705070629141A0815171C2B0416070961
:101278000A0BE11D1B06190511E0E3E2002C2C2CDA
:10128800180C12132A00000D0E0F33280000103618
:1012980037523800002C0050514F000058FEFFFF15
:1012A80080FEFFFFA8FEFFFFC0FEFFFFDAFEFFFF84
:0812B8000A0908070B0C0D00E8
:00000001FF
